:020000040000FA
:040000000FEF00F00E
:020004000000FA
:08000800E86A8C24026EE86A2C
:1000100001248C6EE86A0224016EF2921000016ADB
:10002000E86AC16A0F0EC16E936A816A8A6AE86AD9
:10003000936A010E936E956A836A8C6AE86A8C6A89
:10004000110E8C6EE86A016A550E016ED08EF28E2A
:10005000F288F292C80E146E5A0E156E000000005F
:10006000000000000000152E2EEF00F0142E2CEFE3
:0C00700000F08C463CEF00F02AEF00F09E
:020000040030CA
:0100010008F6
:010002001FDE
:010003001EDE
:010005008377
:010006008178
:010008000FE8
:01000900C036
:01000A000FE6
:01000B00E014
:01000C000FE4
:01000D0040B2
:00000001FF
